:10000300FF0000FE0100FD0200FC0300FB0400FAF8
:100013000500F90600F80700F70800F60900F50ADD
:1000230000F40B00F30C00F20D00F10E00F00F00D2
:10003300EF1000EE1100ED1200EC1300EB1400EAD8
:100043001500E91600E81700E71800E61900E51A9D
:1000530000E41B00E31C00E21D00E11E00E01F00A2
:10006300DF2000DE2100DD2200DC2300DB2400DAB8
:100073002500D92600D82700D72800D62900D52A5D
:1000830000D42B00D32C00D22D00D12E00D02F0072
:10009300CF3000CE3100CD3200CC3300CB3400CA98
:1000A3003500C93600C83700C73800C63900C53A1D
:1000B30000C43B00C33C00C23D00C13E00C03F0042
:1000C300BF4000BE4100BD4200BC4300BB4400BA78
:1000D3004500B94600B84700B74800B64900B54ADD
:1000E30000B44B00B34C00B24D00B14E00B04F0012
:1000F300AF5000AE5100AD5200AC5300AB5400AA58
:100103005500A95600A85700A75800A65900A55A9C
:1001130000A45B00A35C00A25D00A15E00A05F00E1
:100123009F60009E61009D62009C63009B64009A37
:100133006500996600986700976800966900956A5C
:1001430000946B00936C00926D00916E00906F00B1
:100153008F70008E71008D72008C73008B74008A17
:100163007500897600887700877800867900857A1C
:1001730000847B00837C00827D00817E00807F0081
:100183007F80007E81007D82007C83007B84007AF7
:100193008500798600788700778800768900758ADC
:1001A30000748B00738C00728D00718E00708F0051
:1001B3006F90006E91006D92006C93006B94006AD7
:1001C3009500699600689700679800669900659A9C
:1001D30000649B00639C00629D00619E00609F0021
:1001E3005FA0005EA1005DA2005CA3005BA4005AB7
:1001F300A50059A60058A70057A80056A90055AA5C
:100203000054AB0053AC0052AD0051AE0050AF00F0
:100213004FB0004EB1004DB2004CB3004BB4004A96
:10022300B50049B60048B70047B80046B90045BA1B
:100233000044BB0043BC0042BD0041BE0040BF00C0
:100243003FC0003EC1003DC2003CC3003BC4003A76
:10025300C50039C60038C70037C80036C90035CADB
:100263000034CB0033CC0032CD0031CE0030CF0090
:100273002FD0002ED1002DD2002CD3002BD4002A56
:10028300D50029D60028D70027D80026D90025DA9B
:100293000024DB0023DC0022DD0021DE0020DF0060
:1002A3001FE0001EE1001DE2001CE3001BE4001A36
:1002B300E50019E60018E70017E80016E90015EA5B
:1002C3000014EB0013EC0012ED0011EE0010EF0030
:1002D3000FF0000EF1000DF2000CF3000BF4000A16
:1002E300F50009F60008F70007F80006F90005FA1B
:1002F3000004FB0003FC0002FD0001FE0000FF0000
:1003030000FE0100FD0200FC0300FB0400FA0500EF
:10031300F90600F80700F70800F60900F50A00F4EB
:100323000B00F30C00F20D00F10E00F00F00EF10C4
:1003330000EE1100ED1200EC1300EB1400EA1500BF
:10034300E91600E81700E71800E61900E51A00E4CB
:100353001B00E31C00E21D00E11E00E01F00DF2084
:1003630000DE2100DD2200DC2300DB2400DA25008F
:10037300D92600D82700D72800D62900D52A00D4AB
:100383002B00D32C00D22D00D12E00D02F00CF3044
:1003930000CE3100CD3200CC3300CB3400CA35005F
:1003A300C93600C83700C73800C63900C53A00C48B
:1003B3003B00C33C00C23D00C13E00C03F00BF4004
:1003C30000BE4100BD4200BC4300BB4400BA45002F
:1003D300B94600B84700B74800B64900B54A00B46B
:1003E3004B00B34C00B24D00B14E00B04F00AF50C4
:1003F30000AE5100AD5200AC5300AB5400AA5500FF
:10040300A95600A85700A75800A65900A55A00A44A
:100413005B00A35C00A25D00A15E00A05F009F6083
:10042300009E61009D62009C63009B64009A6500CE
:10043300996600986700976800966900956A00942A
:100443006B00936C00926D00916E00906F008F7043
:10045300008E71008D72008C73008B74008A75009E
:10046300897600887700877800867900857A00840A
:100473007B00837C00827D00817E00807F007F8003
:10048300007E81007D82007C83007B84007A85006E
:10049300798600788700778800768900758A0074EA
:1004A3008B00738C00728D00718E00708F006F90C3
:1004B300006E91006D92006C93006B94006A95003E
:1004C300699600689700679800669900659A0064CA
:1004D3009B00639C00629D00619E00609F005FA083
:1004E300005EA1005DA2005CA3005BA4005AA5000E
:1004F30059A60058A70057A80056A90055AA0054AA
:10050300AB0053AC0052AD0051AE0050AF004FB042
:10051300004EB1004DB2004CB3004BB4004AB500DD
:1005230049B60048B70047B80046B90045BA004489
:10053300BB0043BC0042BD0041BE0040BF003FC002
:10054300003EC1003DC2003CC3003BC4003AC500AD
:1005530039C60038C70037C80036C90035CA003469
:10056300CB0033CC0032CD0031CE0030CF002FD0C2
:10057300002ED1002DD2002CD3002BD4002AD5007D
:1005830029D60028D70027D80026D90025DA002449
:10059300DB0023DC0022DD0021DE0020DF001FE082
:1005A300001EE1001DE2001CE3001BE4001AE5004D
:1005B30019E60018E70017E80016E90015EA001429
:1005C300EB0013EC0012ED0011EE0010EF000FF042
:1005D300000EF1000DF2000CF3000BF4000AF5001D
:1005E30009F60008F70007F80006F90005FA000409
:1005F300FB0003FC0002FD0001FE0000FF0100FE02
:100603000200FD0300FC0400FB0500FA0600F907E5
:1006130000F80800F70900F60A00F50B00F40C00D7
:10062300F30D00F20E00F10F00F01000EF1100EED9
:100633001200ED1300EC1400EB1500EA1600E917A5
:1006430000E81800E71900E61A00E51B00E41C00A7
:10065300E31D00E21E00E11F00E02000DF2100DEB9
:100663002200DD2300DC2400DB2500DA2600D92765
:1006730000D82800D72900D62A00D52B00D42C0077
:10068300D32D00D22E00D12F00D03000CF3100CE99
:100693003200CD3300CC3400CB3500CA3600C93725
:1006A30000C83800C73900C63A00C53B00C43C0047
:1006B300C33D00C23E00C13F00C04000BF4100BE79
:1006C3004200BD4300BC4400BB4500BA4600B947E5
:1006D30000B84800B74900B64A00B54B00B44C0017
:1006E300B34D00B24E00B14F00B05000AF5100AE59
:1006F3005200AD5300AC5400AB5500AA5600A957A5
:1007030000A85800A75900A65A00A55B00A45C00E6
:10071300A35D00A25E00A15F00A060009F61009E38
:1007230062009D63009C64009B65009A6600996764
:1007330000986800976900966A00956B00946C00B6
:10074300936D00926E00916F009070008F71008E18
:1007530072008D73008C74008B75008A7600897724
:1007630000887800877900867A00857B00847C0086
:10077300837D00827E00817F008080007F81007EF8
:1007830082007D83007C84007B85007A86007987E4
:1007930000788800778900768A00758B00748C0056
:1007A300738D00728E00718F007090006F91006ED8
:1007B30092006D93006C94006B95006A96006997A4
:1007C30000689800679900669A00659B00649C0026
:1007D300639D00629E00619F0060A0005FA1005EB8
:1007E300A2005DA3005CA4005BA5005AA60059A764
:1007F3000058A80057A90056AA0055AB0054AC00F6
:1008030053AD0052AE0051AF0050B0004FB1004E97
:10081300B2004DB3004CB4004BB5004AB60049B723
:100823000048B80047B90046BA0045BB0044BC00C5
:1008330043BD0042BE0041BF0040C0003FC1003E77
:10084300C2003DC3003CC4003BC5003AC60039C7E3
:100853000038C80037C90036CA0035CB0034CC0095
:1008630033CD0032CE0031CF0030D0002FD1002E57
:10087300D2002DD3002CD4002BD5002AD60029D7A3
:100883000028D80027D90026DA0025DB0024DC0065
:1008930023DD0022DE0021DF0020E0001FE1001E37
:1008A300E2001DE3001CE4001BE5001AE60019E763
:1008B3000018E80017E90016EA0015EB0014EC0035
:1008C30013ED0012EE0011EF0010F0000FF1000E17
:1008D300F2000DF3000CF4000BF5000AF60009F723
:1008E3000008F80007F90006FA0005FB0004FC0005
:0A08F30003FD0002FE0001FF0000FB
:1018DF0041000A0041000B00420007000060360083
:1018EF000C000000000000000000000000000000DD
:1018FF0000000000000000000000000000000000D9
:10190F0000000000000000000000000000000000C8
:10191F000000000000000041000900410000FF41ED
:10192F00000100410002004100030041000400419A
:07193F000005004100060154
:0B1BD600EF1FAC0670011E4C70F622E1
:041AF200AB07AA068E
:101AF600900000E4F583F582C3E5829BE5839A5066
:0B1B06000A7FDC7E05121BD6A380EDD9
:011B110022B1
:101B6200D280000000000000000000000000000021
:091B720000C28000000000002206
:101B9300D2800000000000C28000000000000000AE
:041BA300000000221C
:101B7B00E4FEEF30E705121B628003121B93EF2587
:071B8B00E0FF0EEEB408EBD1
:011B92002230
:0B1BE100EF7004121B9322121B622203
:071BFC0053B1FE43B20122C8
:101B1200E490005DF0A3F0C280EF70077F64FE12D4
:0A1B22001BD6227FC27E01121BD6E3
:011B2C002296
:1019A30090005BEEF0A3EFF0E4FDFF121B12E4EDF9
:1019B30075F003A4240CF582E43400F583E0FF12F0
:1019C3001B7BED75F003A4240DF582E43400F5834D
:1019D300E0FF121B7BED75F003A4240EF582E434C3
:1019E30000F583E0FF121B7B0DEDB412C27F0112E1
:0219F3001B12C5
:0119F50022CF
:101BBA007E007F367D007B017A00790C120CEB22C5
:101A8A00E490005FF0A3F0A3F0EF75F003A4240C38
:101A9A00F582E43400F583EBF0EF75F003A4240D2E
:101AAA00F582E43400F583EDF090005EE0FEEF7518
:0E1ABA00F003A4240EF582E43400F583EEF070
:011AC80022FB
:091AC90090005AEFF0AC03A905EE
:101AD200E4FAAF0290005AE0FDAB0190005EECF038
:0F1AE200121A8A0AEAB412EA7F367E001219A39A
:011AF10022D2
:0B143800900047EBF0A3EAF0A3E9F0FE
:10144300900003E014602114602F14603C14604A80
:1014530014605924057060900001E004F0E0F4701A
:101463005690000304F0804F900000E014F0E07009
:10147300469000037402F0803E900002E004F0E026
:10148300F47034A37403F0802E900001E014F0E0B4
:1014930070259000037404F0801D900000E004F0B8
:1014A300E0B4FF139000037405F0800B900002E09A
:1014B30014F0E07002A3F0900001E0FF90004AE016
:1014C300FBA3E0FAA3E0F9EF120B26900000E0FF84
:1014D300900047E0FBA3E0FAA3E0F9EF120B26909C
:1014E3000002E0FF90004DE0FBA3E0FAA3E0F9EF78
:0314F300120B26B3
:0114F60022D3
:10128C0090004DEBF0A3EAF0A3E9F0C374FF9FFFCD
:10129C00C39455503FA3E0FBA3E0FAA3E0F9E4129A
:1012AC000B26EF75F003A4FEC374FF9EFE90004D59
:1012BC00E0FBA3E0FAA3E0F9EE120B26EF75F003C6
:1012CC00A4FF900053E0FBA3E0FAA3E0F9EF120BAC
:1012DC00267F0022EFC394AA504474AB2FFF75F005
:1012EC0003A4FE900050E0FBA3E0FAA3E0F9EE1299
:1012FC000B2690004DE0FBA3E0FAA3E0F9E4120BFF
:10130C0026EF75F003A4FFC374FF9FFF900053E01A
:10131C00FBA3E0FAA3E0F9EF120B267F0022745630
:10132C002FFF75F003A4FEC374FF9EFE900050E0E7
:10133C00FBA3E0FAA3E0F9EE120B26EF75F003A481
:10134C00FF90004DE0FBA3E0FAA3E0F9EF120B26AF
:10135C00900053E0FBA3E0FAA3E0F9E4120B26FFA4
:01136C00225E
:0E19F600900042EEF0A3EFF0A3EDF0A3EBF0B3
:101A0400E4900047F0F0E4FBFDFF121AC990004790
:101A1400E0FF900044E0FDA3E0FBA3E090005EF053
:101A2400121A8A7F367E001219A3900042E0FEA3A8
:101A3400E0FF121AF2900047E004F0E0C394124071
:011A4400C5DC
:011A4500227E
:0815A600900042EEF0A3EFF00B
:1015AE00E4A3F0A3F0F9900044F0A3F0E4F9900066
:1015BE0044E0FEA3E0FF90000375F003120CDFEE93
:1015CE0075F003A42583F583E493FD90000475F074
:1015DE0003EF120CDFEE75F003A42583F583E4937D
:1015EE00FB90000575F003EF120CDFEE75F003A40F
:1015FE002583F583E49390005EF0AF01121A8A09F9
:10160E00E9B412AA7F367E001219A3900042E0FEC2
:10161E00A3E0FF121AF2900045E004F0700690006D
:10162E0044E004F0C3900045E094FE900044E09442
:06163E000250030215BA80
:011644002283
:1014F700900042EEF0A3EFF0A3ECF0A3EDF0A3EB26
:01150700F0F3
:10150800E4900049F0900044E0FCA3E0FD7E007FF9
:1015180012120B3890004AEEF0A3EFF0E4FBFDFF47
:10152800121AC9E4900049F0E4FBFDFF121AC9E45D
:1015380090004CF0A3F0900044E0FEA3E0FF900080
:101548004CE0FCA3E0FDC39FEC9E503390004AE0C2
:10155800A3E0FFED8FF0A4FF900049E02FFF90007B
:1015680046E0FDA3E0FBA3E090005EF0121A8A902B
:10157800004DE004F0700690004CE004F080B77F66
:10158800367E001219A3900042E0FEA3E0FF121A73
:0D159800F2900049E004F0E0C39412408B93
:0115A5002223
:0E187700900042EEF0A3EFF0A3EDF0A3EBF033
:10188500E4F9FBFDFF121AC9E4F9AF01900044E049
:10189500FDA3E0FBA3E090005EF0121A8A7F367E7E
:1018A500001219A3900042E0FEA3E0FF121AF2090C
:1018B500E9B412D6E4F9AF01E490005EF0FBFD1245
:1018C5001A8A7F367E001219A3900042E0FEA3E03B
:0918D500FF121AF209E9B412DD58
:0118DE0022E7
:1008FD00900042EEF0A3EFF0A3ECF0A3EDF0A3EB2C
:01090D00F0F9
:10090E00E490004CF0A3F0900049E0FFE4C3EF9BAD
:10091E00FFE49400FEE49400FDE49400FCC006C0E5
:10092E0007900044E0FEA3E0FFFBAA06E4F9F8D02E
:10093E0007D006121A4690004E120CD3900047E0D4
:10094E00FFFBE490004AE0FFE4C3EF9BFFE494005A
:10095E00FEE49400FDE49400FCC006C00790004441
:10096E00E0FEA3E0FFFBAA06E4F9F8D007D00612DA
:10097E001A46900052120CD3900048E0FFFBE49010
:10098E00004BE0FFE4C3EF9BFFE49400FEE4940011
:10099E00FDE49400FCC006C007900044E0FEA3E016
:1009AE00FFFBAA06E4F9F8D007D006121A4690000B
:1009BE0056120CD3E490004CF0A3F0900044E0FCEF
:1009CE00A3E0FD90004CE0FEA3E0FFC39DEE9C4033
:1009DE0003020A70E4FCFDA3E0F8A3E0F9A3E0FA39
:1009EE00A3E0FB120BA3900046E02FFFC007900080
:1009FE004CE0FEA3E0FFE4FCFD900052E0F8A3E023
:100A0E00F9A3E0FAA3E0FB120BA3900047E02FFD41
:100A1E00C00590004CE0FEA3E0FFE4FCFD90005604
:100A2E00E0F8A3E0F9A3E0FAA3E0FB120BA3900019
:100A3E0048E02FFBD005D007121AC9900044E0FC05
:100A4E00A3E0FD900042E0FEA3E0FF120B38121B64
:100A5E00D690004DE004F0700690004CE004F002D9
:100A6E0009C9900045E024FFFE900044E034FF9059
:100A7E00004CF0A3CEF090004CE0FEA3E0FFD39428
:100A8E0000EE94005003020B25E4FCFDA3E0F8A356
:100A9E00E0F9A3E0FAA3E0FB120BA3900046E02FCF
:100AAE00FFC00790004CE0FEA3E0FFE4FCFD9000C9
:100ABE0052E0F8A3E0F9A3E0FAA3E0FB120BA39037
:100ACE000047E02FFDC00590004CE0FEA3E0FFE4E0
:100ADE00FCFD900056E0F8A3E0F9A3E0FAA3E0FBDA
:100AEE00120BA3900048E02FFBD005D007121AC9B5
:100AFE00900044E0FCA3E0FD900042E0FEA3E0FF86
:100B0E00120B38121BD690004DE024FFF090004CD3
:070B1E00E034FFF0020A843D
:010B250022AD
:0816DF00900042EEF0A3EFF0D1
:1016E700E4FA900005E0600F900004E004F0E0B435
:1016F700FF11E4A3F0800C900004E014F0E0700305
:10170700A304F0E4FAAF02C007EA75F00384E5F03A
:101717005401FF900004E0FBEF8BF0A4FDC005EA45
:101727002401FFE433FE7C007D03120B38ED5401E6
:101737008BF0A4FBEA2402FFE433FE7C007D031256
:101747000B38ED5401FFE0FEEF8EF0A490005EF041
:10175700D005D007121A8A7F367E001219A390008F
:0E17670042E0FEA3E0FF121BD60AEAB412977E
:011775002251
:080E9C00900042EEF0A3EFF01C
:100EA400E4A3F0A3F0A3F0A3F0A3F090004BF09020
:100EB4000044F0A3F0E4900046F0E4900047F0A36F
:100EC400F0900047E0FEA3E0FFC39412EE940050BC
:100ED40068900044E0FCA3E0FDEF2DFFEE3CFE7CB7
:100EE400007DFF120B38AF059000507401F0A3741D
:100EF40000F0A3744AF0A37401F0A37400F0A37487
:100F04004BF07B017A00794912128C900047E0A3E0
:100F1400E0FF900046E02FFF900049E0FDA3E0FBD6
:100F2400A3E090005EF0121A8A900048E02403F0D7
:100F3400900047E03400F080887F367E001219A3C9
:100F4400900042E0FEA3E0FF121AF2E4900047F0A2
:100F5400A3F0900047E0FEA3E0FFC39412EE9400D8
:100F64005020900046E02FFFE490005EF0FBFD125D
:100F74001A8A900048E02403F0900047E03400F01F
:100F840080D0900046E004F0E0C394035003020EC6
:100F9400BE900045E004F07006900044E004F0C305
:0B0FA400900044E094015003020EB9DD
:010FAF00221F
:0D10AE00900042EEF0A3EFF0A3EDF0A903D7
:1010BB00E4900047F0A3F0A3F0A3F0A3F0A3F0900B
:1010CB000047F0A3F0E4900049F0A3F0E490004B4C
:1010DB00F0A3F090004BE0FEA3E0FFC39412EE945C
:1010EB0000502C900049E0A3E0FDEF2DFF90004451
:1010FB00E0FDAB01900046E090005EF0121A8A9082
:10110B00004CE02403F090004BE03400F080C47FEF
:10111B00367E001219A3900042E0FEA3E0FF121AE4
:10112B00F2E490004BF0A3F090004BE0FEA3E0FF45
:10113B00C39412EE94005024900049E0A3E0FDEF1D
:10114B002DFFE490005EF0FBFD121A8A90004CE03C
:10115B002403F090004BE03400F080CC90004AE088
:10116B0004F07006900049E004F0C390004AE0944C
:10117B0003900049E0940050030210D7900048E020
:10118B0004F07006900047E004F0C3900048E09430
:0C119B000A900047E0940050030210D0BE
:0111A7002225
:0B136D00900042EFF0A3ECF0A3EDF0C5
:10137800E4A3F0A3F0A3F0A3F090004BF090004793
:10138800F0A3F0900042E0FEC3900048E094009083
:101398000047E09E4003021437E4900045F0A3F0B4
:1013A800900045E0FEA3E0FFC39412EE9400505C69
:1013B800EF7F00FE7C007D12120B38A3E0A3E02F24
:1013C800FF9000507401F0A37400F0A3744AF0A3D6
:1013D8007401F0A37400F0A3744BF07B017A0079D8
:1013E8004912128C900045E0A3E0FF900049E0FD0F
:1013F800A3E0FBA3E090005EF0121A8A900046E09A
:1014080004F07006900045E004F080947F367E007A
:101418001219A3900043E0FEA3E0FF121AF2900015
:0F14280048E004F07006900047E004F002138BD8
:011437002292
:08194700900042EEF0A3EFF066
:10194F00E4FC900046F090004A7401F0A37400F09C
:10195F00A37445F0A37401F0A37400F0A37446F0D0
:10196F007B017A007944121438AF04900044E0FDF3
:10197F00A3E0FBA3E090005EF0121A8A0CECB41205
:10198F00C57F367E001219A3900042E0FEA3E0FF50
:03199F00121AF227
:0119A2002222
:080FB00090006BEEF0A3EFF0DE
:100FB800E4A3F0A3F0A3F0FCA3F0A3F0FA90007070
:100FC800E0FEA3E090000375F003120CDFEE75F06D
:100FD80003A42583F583E493900072F0900070E0F9
:100FE800A3E090000475F003120CDFEE75F003A483
:100FF8002583F583E493F9900070E0A3E090000561
:1010080075F003120CDFEE75F003A42583F583E475
:1010180093FA900006E06030E4AF04900072E0FDBF
:10102800AB0190005EEAF0121A8A0CECB412EA7F67
:10103800367E001219A390006BE0FEA3E0FF121A9F
:10104800F2E4900006F0804190006EE4F0A374FF93
:10105800F090006EE0A3E0FBFDFF121AC990006B50
:10106800E0FEA3E0FF121AF290006FE024FFF09078
:10107800006EE034FFF0D3A3E0947F90006EE0941C
:101088000050CE9000067401F0900070E475F001F5
:10109800120B8DFED3E5F094FEEE94024007E49027
:0510A8000070F0A3F050
:0110AD002220
:081BEC007F017E001215A62204
:1011A800900009E0FF04F0EFC3940B40037401F0D2
:1011B800900009E014B40A0040030212849011D38D
:1011C80075F003A4C58325F0C583730211F10211DC
:1011D800FB02120602121602121F02122802124500
:1011E80002125602126C0212757F327E00121947E3
:1011F8000212847D057C007F0112136D807EE490CD
:101208000046F0FB7DFF7F3CFE1210AE806E7F0132
:101218007E00120E9C80657F037E001216DF805CC4
:10122800E4900047F0A3F0A3F0A3F0A374FFF0FB51
:101238007D107C007F327E001208FD803F900046C2
:10124800743FF0FBFD7F1E7E00121877802E900001
:1012580047743FF0E4A3F07B3F7D01FC7F1EFE1244
:1012680014F780187F017E001215A6800F900046A3
:101278007414F0E4FBFD7F1EFE1219F67F887E13BE
:04128800121AF22222
:101BA700121776E4F5B1F5B2F5B3F5B4F5ACF5ADCA
:031BB700D2AF2288
:0C1BCA00121BA7121BFC1211A880FB22AA
:081BF4003099FDC2998F99227E
:10180400A2AF9200C2AF75C7AA75C755439F01A284
:101814000092AF75A630E4F5A775AF04A2AF9200AD
:10182400C2AF75C7AA75C75543A401A20092AF857C
:10183400AE0875A631F5A7A2AF9200C2AF75C7AACC
:1018440075C75543A401A20092AF85AE09A2AF9219
:1018540000C2AF75C7AA75C755539FFEA20092AFC9
:1018640075C7AA75C75585088475C7AA75C75585F0
:021874000985E4
:01187600224F
:10177600E58720E403021803A2AF9200C2AF75C743
:10178600AA75C755439F01A20092AF75A638E4F526
:10179600A775AF04A2AF9200C2AF75C7AA75C755A9
:1017A60043A401A20092AF85AE0A75A639F5A7A299
:1017B600AF9200C2AF75C7AA75C75543A401A20070
:1017C60092AF85AE0BA2AF9200C2AF75C7AA75C71E
:1017D60055539FFEA20092AF75C7AA75C755850AD5
:1017E6008475C7AA75C755850B85A2AF9200C2AF8F
:0D17F60075C7AA75C755539FFEA20092AF9C
:0118030022C2
:100D1700900062120CD3900066E0146058147003C0
:100D2700020E0F24026003020E9B53B1BF43B24071
:100D370043B18053B27F75985043892043878043DE
:100D47008E1053C4DFE47B10FAF9F8900062E0FCE0
:100D5700A3E0FDA3E0FEA3E0FF120C2E900067E0E6
:100D6700F8A3E0F9A3E0FAA3E0FB120C2EEFF404DA
:100D7700F58DD28E2253B1BF43B24043B18053B2F7
:100D87007F75985043878053C4F843C420E47B1091
:100D9700FAF9F8900062E0FCA3E0FDA3E0FEA3E00F
:100DA700FF120C2E900067E0F8A3E0F9A3E0FAA386
:100DB700E0FB120C2EC3E49FFFE49EFE74019DFD31
:100DC700E49CFC7808120CC08FC6E47B10FAF9F893
:100DD700900062E0FCA3E0FDA3E0FEA3E0FF120C9D
:100DE7002E900067E0F8A3E0F9A3E0FAA3E0FB1276
:100DF7000C2EC3E49FFFE49EFE74019DFDE49CFC62
:100E0700EFE48FC543C4082253B3BF43B44043B193
:100E17000453B2FB75F85075C480E47B10FAF9F8F7
:100E2700900062E0FCA3E0FDA3E0FEA3E0FF120C4C
:100E37002E900067E0F8A3E0F9A3E0FAA3E0FB1225
:100E47000C2EC3E49FFFE49EFE74019DFDE49CFC11
:100E57007808120CC08FC6E47B10FAF9F89000628C
:100E6700E0FCA3E0FDA3E0FEA3E0FF120C2E900040
:100E770067E0F8A3E0F9A3E0FAA3E0FB120C2EC3A6
:100E8700E49FFFE49EFE74019DFDE49CFCEFE48F6C
:050E9700C543C4082260
:101B4800EF14600C0470103098FDAE99C2988007AD
:091B580030F8FDAE9AC2F8AF06A8
:011B61002261
:101B2D00EF14600D047013C2998D9920990C80FBF0
:0B1B3D0022C2F9AF058F9A30F9FD229B
:03000000021645A0
:10164500787FE4F6D8FD9000007FFF7E03E4F0A3E9
:0A165500DFFCDEFA75812002169A10
:10165F00021BCAE493A3F8E493A34003F68001F2BC
:10166F0008DFF48029E493A3F85407240CC8C3338C
:10167F00C4540F4420C8834004F456800146F6DF5B
:10168F00E4800B01020408102040809018DFE47EF4
:10169F00019360BCA3FF543F30E509541FFEE49350
:1016AF00A360010ECF54C025E060A840B8E493A317
:1016BF00FAE493A3F8E493A3C8C582C8CAC583CA42
:1016CF00F0A3C8C582C8CAC583CADFE9DEE780BEFA
:0119460000A0
:100B2600BB010689828A83F0225002F722BBFE01AE
:020B3600F322A8
:100B3800BC000BBE0029EF8DF084FFADF022E4CCA1
:100B4800F875F008EF2FFFEE33FEEC33FCEE9DEC6A
:100B5800984005FCEE9DFE0FD5F0E9E4CEFD22EDB0
:100B6800F8F5F0EE8420D21CFEADF075F008EF2FFA
:100B7800FFED33FD4007985006D5F0F222C398FDEB
:050B88000FD5F0EA2288
:100B8D00A3F8E0C5F025F0F0E5821582700215831B
:060B9D00E0C838F0E82278
:100BA300E88FF0A4CC8BF0A42CFCE98EF0A42CFCF1
:100BB3008AF0EDA42CFCEA8EF0A4CDA8F08BF0A46F
:100BC3002DCC3825F0FDE98FF0A42CCD35F0FCEBCE
:100BD3008EF0A4FEA9F0EB8FF0A4CFC5F02ECD3993
:0F0BE300FEE43CFCEAA42DCE35F0FDE43CFC2200
:100BF20075F008758200EF2FFFEE33FECD33CDCCBA
:100C020033CCC58233C5829BED9AEC99E58298403C
:100C12000CF582EE9BFEED9AFDEC99FC0FD5F0D619
:100C2200E4CEFBE4CDFAE4CCF9A88222B800C1B943
:100C32000059BA002DEC8BF084CFCECDFCE5F0CB81
:100C4200F97818EF2FFFEE33FEED33FDEC33FCEBBA
:100C520033FB10D703994004EB99FB0FD8E5E4F975
:100C6200FA227818EF2FFFEE33FEED33FDEC33FC62
:100C7200C933C910D7059BE99A4007EC9BFCE99A56
:100C8200F90FD8E0E4C9FAE4CCFB2275F010EF2F9B
:100C9200FFEE33FEED33FDCC33CCC833C810D7079B
:100CA2009BEC9AE899400AED9BFDEC9AFCE899F8D6
:0E0CB2000FD5F0DAE4CDFBE4CCFAE4C8F92269
:101A4600C2D5E830E70FB2D5E4C39BFBE49AFAE4CB
:101A560099F9E498F8EC30E717B2D5121A7C120C13
:101A66002EE4C39BFBE49AFAE499F9E498F8800320
:101A7600120C2E30D50DE4C39FFFE49EFEE49DFDBF
:041A8600E49CFC22BE
:100CC000E8600FECC313FCED13FDEE13FEEF13FF12
:030CD000D8F12236
:0C0CD300ECF0A3EDF0A3EEF0A3EFF02294
:0C0CDF00A42582F582E5F03583F5832220
:100CEB00EF4E6012EF60010EEDBB010B89828A8320
:100CFB00F0A3DFFCDEFA2289F05007F709DFFCA92D
:0C0D0B00F022BBFEFCF309DFFCA9F02283
:00000001FF
